:020000040800F2
:1050000000500020B1A20008B1990008B39900082F
:10501000BD990008C7990008D19900080000000058
:10502000000000000000000000000000DB99000804
:10503000DD99000800000000DF990008E1990008F0
:1050400005A3000805A3000805A30008099C0008A3
:1050500005A3000805A30008419A0008619A00080A
:10506000819A0008B59A0008D59A000805A300089F
:1050700005A3000805A3000805A30008719C00080B
:1050800005A3000805A30008F199000805A300087E
:10509000759C000805A3000805A30008F59A000800
:1050A00005A3000805A3000805A30008BD9B000890
:1050B00005A3000805A3000805A30008119A00082D
:1050C000219A000805A3000805A30008319A0008EA
:1050D00005A3000805A30008019A000805A300081D
:1050E000459B0008319C000805A300080000000053
:1050F00000000000000000000000000000000000B0
:0C51000000000000000000005FF808F153
:1051100081F0004102E000BF83F0004330B54FEA68
:1051200041044FEA430594EA050F08BF90EA020FD5
:105130001FBF54EA000C55EA020C7FEA645C7FEA68
:10514000655C00F0E2804FEA5454D4EB5555B8BF8B
:105150006D420CDD2C4480EA020281EA030382EAFC
:10516000000083EA010180EA020281EA0303362D8E
:1051700088BF30BD11F0004F4FEA01314FF4801C61
:105180004CEA113102D0404261EB410113F0004F73
:105190004FEA03334CEA133302D0524263EB43032A
:1051A00094EA050F00F0A780A4F10104D5F1200EC8
:1051B0000DDB02FA0EFC22FA05F2801841F1000123
:1051C00003FA0EF2801843FA05F359410EE0A5F1F7
:1051D00020050EF1200E012A03FA0EFC28BF4CF028
:1051E000020C43FA05F3C01851EBE37101F00045DE
:1051F00007D54FF0000EDCF1000C7EEB00006EEBEB
:105200000101B1F5801F1BD3B1F5001F0CD3490874
:105210005FEA30004FEA3C0C04F101044FEA4452CB
:1052200012F5800F80F09A80BCF1004F08BF5FEA52
:10523000500C50F1000041EB045141EA050130BD32
:105240005FEA4C0C404141EB010111F4801FA4F1D5
:105250000104E9D191F0000F04BF01460020B1FA2A
:1052600081F308BF2033A3F10B03B3F120020CDA62
:105270000C3208DD02F1140CC2F10C0201FA0CF040
:1052800021FA02F10CE002F11402D8BFC2F1200CA5
:1052900001FA02F120FA0CFCDCBF41EA0C0190405B
:1052A000E41AA2BF01EB0451294330BD6FEA0404A4
:1052B0001F3C1CDA0C340EDC04F11404C4F120028F
:1052C00020FA04F001FA02F340EA030021FA04F3A1
:1052D00045EA030130BDC4F10C04C4F1200220FAF8
:1052E00002F001FA04F340EA0300294630BD21FA36
:1052F00004F0294630BD94F0000F83F4801306BFFC
:1053000081F480110134013D4EE77FEA645C18BFEF
:105310007FEA655C29D094EA050F08BF90EA020F86
:1053200005D054EA000C04BF1946104630BD91EA7E
:10533000030F1EBF0021002030BD5FEA545C05D181
:105340004000494128BF41F0004130BD14F58004C0
:105350003CBF01F5801130BD01F0004545F0FE4134
:1053600041F470014FF0000030BD7FEA645C1ABF69
:10537000194610467FEA655C1CBF0B46024650EAA0
:10538000013406BF52EA033591EA030F41F40021CC
:1053900030BD00BF90F0000F04BF0021704730B552
:1053A0004FF4806404F132044FF000054FF0000127
:1053B00050E700BF90F0000F04BF0021704730B5E8
:1053C0004FF4806404F1320410F0004548BF4042BD
:1053D0004FF000013EE700BF42004FEAE2014FEA12
:1053E00031014FEA02701FBF12F07F4393F07F4FED
:1053F00081F06051704792F0000F14BF93F07F4F1F
:10540000704730B54FF4607401F0004521F0004161
:1054100020E700BF50EA010208BF704730B54FF0E7
:1054200000050AE050EA010208BF704730B511F0EC
:10543000004502D5404261EB41014FF4806404F124
:1054400032045FEA915C3FF4DCAE4FF003025FEAA6
:10545000DC0C18BF03325FEADC0C18BF033202EB2E
:10546000DC02C2F1200300FA03FC20FA02F001FA88
:1054700003FE40EA0E0021FA02F11444C1E600BF27
:1054800070B54FF0FF0C4CF4E06C1CEA11541DBFDA
:105490001CEA135594EA0C0F95EA0C0F00F0DEF8A5
:1054A0002C4481EA030621EA4C5123EA4C5350EA8A
:1054B000013518BF52EA033541F4801143F48013DB
:1054C00038D0A0FB02CE4FF00005E1FB02E506F06C
:1054D0000042E0FB03E54FF00006E1FB03569CF0C1
:1054E000000F18BF4EF0010EA4F1FF04B6F5007FC7
:1054F00064F5407404D25FEA4E0E6D4146EB060639
:1055000042EAC62141EA55514FEAC52040EA5E50C1
:105510004FEACE2EB4F1FD0C88BFBCF5E06F1ED86B
:10552000BEF1004F08BF5FEA500E50F1000041EBA2
:10553000045170BD06F0004646EA010140EA02004F
:1055400081EA0301B4EB5C04C2BFD4EB0C0541EA71
:10555000045170BD41F480114FF0000E013C00F386
:10556000AB8014F1360FDEBF002001F0004170BDAA
:10557000C4F10004203C35DA0C341BDC04F11404C3
:10558000C4F1200500FA05F320FA04F001FA05F24F
:1055900040EA020001F0004221F0004110EBD3701C
:1055A00021FA04F642EB06015EEA430E08BF20EA48
:1055B000D37070BDC4F10C04C4F1200500FA04F3EB
:1055C00020FA05F001FA04F240EA020001F000417D
:1055D00010EBD37041F100015EEA430E08BF20EAF0
:1055E000D37070BDC4F1200500FA05F24EEA020E38
:1055F00020FA04F301FA05F243EA020321FA04F067
:1056000001F0004121FA04F220EA020000EBD3701D
:105610005EEA430E08BF20EAD37070BD94F0000F1D
:105620000FD101F00046400041EB010111F4801F51
:1056300008BF013CF7D041EA060195F0000F18BF02
:10564000704703F00046520043EB030313F4801F3E
:1056500008BF013DF7D043EA0603704794EA0C0FF8
:105660000CEA135518BF95EA0C0F0CD050EA41060E
:1056700018BF52EA4306D1D181EA030101F000418B
:105680004FF0000070BD50EA410606BF10461946B3
:1056900052EA430619D094EA0C0F02D150EA0136BF
:1056A00013D195EA0C0F05D152EA03361CBF104600
:1056B00019460AD181EA030101F0004141F0FE419F
:1056C00041F470014FF0000070BD41F0FE4141F423
:1056D000780170BD70B54FF0FF0C4CF4E06C1CEA23
:1056E00011541DBF1CEA135594EA0C0F95EA0C0FD8
:1056F00000F0A7F8A4EB050481EA030E52EA033593
:105700004FEA013100F088804FEA03334FF08055B3
:1057100045EA131343EA12634FEA022245EA1115E0
:1057200045EA10654FEA00260EF000419D4208BF91
:10573000964244F1FD0404F5407402D25B084FEA3E
:105740003202B61A65EB03055B084FEA32024FF4EA
:1057500080104FF4002CB6EB020E75EB030E22BF47
:10576000B61A754640EA0C005B084FEA3202B6EB07
:10577000020E75EB030E22BFB61A754640EA5C00B6
:105780005B084FEA3202B6EB020E75EB030E22BF46
:10579000B61A754640EA9C005B084FEA3202B6EB47
:1057A000020E75EB030E22BFB61A754640EADC0006
:1057B00055EA060E18D04FEA051545EA16754FEA68
:1057C00006164FEAC30343EA52734FEAC2025FEA86
:1057D0001C1CC0D111F4801F0BD141EA00014FF015
:1057E00000004FF0004CB6E711F4801F04BF0143E6
:1057F0000020B4F1FD0C88BFBCF5E06F3FF6AFAE02
:10580000B5EB030C04BFB6EB020C5FEA500C50F191
:10581000000041EB045170BD0EF0004E4EEA113114
:1058200014EB5C04C2BFD4EB0C0541EA045170BD1B
:1058300041F480114FF0000E013C90E645EA060E5F
:105840008DE60CEA135594EA0C0F08BF95EA0C0F8D
:105850003FF43BAF94EA0C0F0AD150EA01347FF4D5
:1058600034AF95EA0C0F7FF425AF104619462CE7AC
:1058700095EA0C0F06D152EA03353FF4FDAE10460F
:10588000194622E750EA410618BF52EA43067FF460
:10589000C5AE50EA41047FF40DAF52EA43057FF4F0
:1058A000EBAE12E74FF0FF3C06E000BF4FF0010CFB
:1058B00002E000BF4FF0010C4DF804CD4FEA410C5F
:1058C0007FEA6C5C4FEA430C18BF7FEA6C5C1BD02C
:1058D00001B050EA410C0CBF52EA430C91EA030FAD
:1058E00002BF90EA020F0020704710F1000F91EA0A
:1058F000030F58BF994208BF90422CBFD8176FEAD8
:10590000E37040F0010070474FEA410C7FEA6C5CA5
:1059100002D150EA013C07D14FEA430C7FEA6C5CAC
:10592000D6D152EA033CD3D05DF8040B704700BFD8
:105930008446104662468C461946634600E000BF26
:1059400001B5FFF7B7FF002848BF10F1000F01BDF8
:105950004DF808EDFFF7F4FF0CBF012000205DF8C3
:1059600008FB00BF4DF808EDFFF7EAFF34BF012048
:1059700000205DF808FB00BF4DF808EDFFF7E0FFE1
:1059800094BF012000205DF808FB00BF4DF808ED32
:10599000FFF7CEFF94BF012000205DF808FB00BF99
:1059A0004DF808EDFFF7C4FF34BF012000205DF87B
:1059B00008FB00BF4FEA410212F5001215D211D5C3
:1059C0006FF47873B3EB625212D94FEAC12343F0FC
:1059D000004343EA505311F0004F23FA02F018BF7E
:1059E000404270474FF00000704750EA013005D147
:1059F00011F0004008BF6FF0004070474FF000000A
:105A0000704700BF844641EA000313F0030349D105
:105A1000403A23D30B6803604B6843608B68836014
:105A2000CB68C3600B6903614B6943618B69836118
:105A3000CB69C3610B6A03624B6A43628B6A836200
:105A4000CB6AC3620B6B03634B6B43638B6B8363E8
:105A5000CB6BC36340304031403ADBD230320BD3A2
:105A60000B6803604B6843608B688360CB68C360DE
:105A700010301031103AF3D20C3205D351F8043BF8
:105A800040F8043B043AF9D2043208D0D2071CBFD4
:105A900011F8013B00F8013B01D30B8803806046FD
:105AA000704700BF082A13D38B07B1D010F003034F
:105AB000AED0C3F10403D21ADB071CBF11F8013BBF
:105AC00000F8013BA4D331F8023B20F8023B9FE7EA
:105AD000043AD9D3013A11F8013B00F8013BF9D25D
:105AE0000B7803704B7843708B78837060467047F7
:105AF00040EA010C1CF0070F27D1BDF1100DCDE9D4
:105B00000245CDE900676FF000064FF0000700BFC7
:105B1000F0E80223F1E80245A242A2F1013C2CEA9E
:105B2000020C0CF0803C08BFBCF1000F40F0E58097
:105B3000AB42A3F1013C2CEA030C0CF0803C08BF03
:105B4000BCF1000F40F0D680E2E710F0030C21D04A
:105B500020F0030050F8042B5FEACC7C08D00FD271
:105B600011F801CB5FFA92F3B3EB0C0C10D17BB1BF
:105B700011F801CB5FFAA2F3B3EB0C0C08D13BB1E7
:105B800011F801CB5FFAB2F3B3EB0C0C00D10BB9F7
:105B900060467047BDF1100DCDE90245CDE90067C3
:105BA0006FF000064FF0000711F0030C33D110F036
:105BB000040F0FD050F8042B51F8044BA242A2F16D
:105BC000013C2CEA020C0CF0803C08BFBCF1000F39
:105BD00040F0938011F0040F99D051F8045B00BF9E
:105BE000F0E80223AA42A2F1013C2CEA020C0CF0DC
:105BF000803C08BFBCF1000F79D1F1E80245A34217
:105C0000A3F1013C2CEA030C0CF0803C08BFBCF172
:105C1000000F69D1E4E721F00301BCF1020F20D0AD
:105C20003FDA51F8045B00BF50F8043B4FEA1525FA
:105C3000A3F1013C2CEA030C0CF0803CB7EB0C2FD9
:105C400003EA162208BFAA4251D151F8045BBCF105
:105C5000000F82EA03034FEA056208BF934240D176
:105C6000E2E751F8045B00BF50F8043B4FEA1545EA
:105C7000A3F1013C2CEA030C0CF0803CB7EB0C4F79
:105C800003EA164208BFAA4231D151F8045BBCF1C5
:105C9000000F82EA03034FEA054208BF934220D176
:105CA000E2E751F8045B00BF50F8043B4FEA15658A
:105CB000A3F1013C2CEA030C0CF0803CB7EB0C6F19
:105CC00003EA166208BFAA4211D151F8045BBCF185
:105CD000000F82EA03034FEA052208BF934200D176
:105CE000E2E719BA12BA0AE019BA22BA07E011BA01
:105CF0002ABA04E019BA2ABA01E011BA22BA9CFA07
:105D00008CF0DDE90067DDE902451DF1100D38B1C9
:105D1000B0FA80F0C0F1180021FA00F122FA00F286
:105D20000120914298BF8041704700BF4BB942B9F2
:105D3000002908BF002802D04FF0FF31084600F0CC
:105D40003BB882B0EC462DE9005000F01DF8DDF8BC
:105D500004E002B00CBC70472DE9704F089E144659
:105D60001D468046894600F029F804FB01F3A4FB98
:105D700000AB00FB05329344B8EB0A0869EB0B0952
:105D8000C6E90089BDE8708F2DE9704F089E144662
:105D90001D468046894600F061F900FB05F5A0FB31
:105DA00004AB04FB0154A344B8EB0A0869EB0B09EC
:105DB000C6E90089BDE8708F704700BF00292DE952
:105DC000F00FC0F2A1800024002BC0F2988015468D
:105DD00006460F46002B3FD18A4258D9B2FA82F3C9
:105DE0004BB1C3F1200201FA03F720FA02F29D4001
:105DF00000FA03F61743290CB7FBF1F201FB127707
:105E0000A8B200FB02F34FEA164C4CEA0747BB422C
:105E100009D97F1902F1FF3C80F00581BB4240F2B5
:105E20000281023A2F44FF1AB7FBF1F301FB137111
:105E300000FB03F0B6B246EA0141884208D949198D
:105E400003F1FF3780F0F180884240F2EE80023BA0
:105E500043EA0242002303E08B420AD900231A4698
:105E60001046194614B1404261EB4101BDE8F00F04
:105E70007047B3FA83F8B8F1000F40F088808B4286
:105E800002D3824200F2E28000230122E8E712B945
:105E90000123B3FBF2F5B5FA85F2002A3AD17F1B54
:105EA000280C1FFA85FC0123B7FBF0F100FB1177EA
:105EB0000CFB01F24FEA164848EA0747BA4207D9F5
:105EC0007F1901F1FF3802D2BA4200F2C480414684
:105ED000BF1AB7FBF0F200FB12700CFB02FCB6B26B
:105EE00046EA0040844507D9401902F1FF3702D243
:105EF000844500F2AE803A4642EA0142B0E7E4430C
:105F0000524263EB430362E7404261EB41014FF0D1
:105F1000FF3459E79540C2F1200927FA09F126FA22
:105F200009F99740280CB1FBF0F800FB18111FFA93
:105F300085FC0CFB08F349EA07094FEA194747EAD1
:105F400001418B4206FA02F608D9491908F1FF32DD
:105F50007AD28B4278D9A8F102082944C91AB1FB38
:105F6000F0F300FB13170CFB03F21FFA89F949EA5F
:105F70000747BA4207D97F1903F1FF3160D2BA420D
:105F80005ED9023B2F44BF1A43EA08438CE7C8F1AD
:105F9000200225FA02F103FA08FC27FA02F320FA9C
:105FA00002F207FA08F741EA0C0C4FEA1C49B3FB6E
:105FB000F9F109FB11331FFA8CFA0AFB01FB1743B5
:105FC0003A0C42EA03439B4505FA08F008D913EB63
:105FD0000C0301F1FF3235D29B4533D902396344BA
:105FE000CBEB0303B3FBF9F209FB12330AFB02FA12
:105FF000BFB247EA0347BA4508D917EB0C0702F1CD
:10600000FF331BD2BA4519D9023A674442EA014527
:10601000A5FB0001CAEB07078F424FF000030AD32C
:1060200005D02A461CE76246FDE63B4610E706FA25
:1060300008F68642F5D26A1E002311E71A46E5E704
:106040000B46A0E71146CBE7904687E7434642461A
:1060500006E7023A50E702392F4439E72DE9F00FFD
:10606000144605460E46002B43D18A4253D9B2FA54
:1060700082F757B1C7F1200620FA06F601FA07F3B6
:1060800002FA07F400FA07F51E43210CB6FBF1F201
:1060900001FB1266A0B200FB02F32F0C47EA064692
:1060A000B34209D9361902F1FF3780F0FD80B342BF
:1060B00040F2FA80023A2644F61AB6FBF1F301FBED
:1060C000136100FB03F0ADB245EA0141884208D9F3
:1060D000091903F1FF3680F0E980884240F2E6803A
:1060E000023B43EA0242002310461946BDE8F00F86
:1060F00070478B424CD8B3FA83F6002E4FD18B42B7
:1061000002D3824200F2DD80BDE8F00F00230122BD
:1061100010461946704712B90124B4FBF2F4B4FAE0
:1061200084F2002A40F08280091B260CA7B20123CA
:10613000B1FBF6F006FB101107FB00F24FEA154C1D
:106140004CEA01418A4207D9091900F1FF3C02D209
:106150008A4200F2C8806046891AB1FBF6F206FB5B
:10616000121107FB02F7ADB245EA0145AF4208D96B
:106170002C1902F1FF3180F09B80A74240F29880F9
:10618000023A42EA004210461946BDE8F00F704755
:1061900000231A4610461946BDE8F00F7047C6F1B5
:1061A000200522FA05F703FA06F421FA05F301FAAD
:1061B00006FB20FA05F53C434FEA1448B3FBF8FC14
:1061C00008FB1C331FFA84F909FB0CFA45EA0B0B98
:1061D0004FEA1B4545EA03439A4502FA06F204D901
:1061E0001B190CF1FF356FD3AC46CAEB0303B3FBAD
:1061F000F8F508FB153309FB05F91FFA8BFB4BEA91
:106200000347B94504D93F1905F1FF3362D31D4651
:1062100045EA0C4CACFB0223C9EB07079F424FF049
:1062200000054AD346D062462B465DE79440C2F152
:10623000200921FA09FC914020FA09F9260CBCFB3F
:10624000F6F806FB18CCA7B207FB08F349EA0109E8
:106250004FEA194141EA0C4C634500FA02F509D9AD
:106260001CEB040C08F1FF323BD2634539D9A8F18D
:106270000208A444C3EB0C0CBCFBF6F306FB13C1F1
:1062800007FB03F21FFA89F949EA01418A4207D95B
:10629000091903F1FF3022D28A4220D9023B21445E
:1062A000891A43EA084343E73A4605E7334618E7C5
:1062B0000A4666E7B0409042B5D20CF1FF320023A7
:1062C00012E7334632460FE79A458DD9ACF1020CFE
:1062D00023448AE7B9459AD9023D274498E7034603
:1062E000DEE79046C6E70238214435E7014B0360FC
:1062F000704700BFD87B010810B5034B044603600C
:1063000001F070FA204610BDD87B010838B501F0C5
:1063100083F9064C05460649204602F0EAFA204673
:1063200029461022BDE8384002F040BB6C1B00201B
:10633000D0A5010808B54868102101F095F9BDE81D
:10634000084080B201F066B9F0B5012185B005467C
:1063500002F010FDA0F13006072E044625D816499C
:10636000684602F08DFC2846694602F0F1FC0746BB
:10637000684602F043FC0FB1B4B20EE00F49684624
:1063800002F07EFC2846694602F0E2FC05466846BB
:1063900002F034FC65B1263CA4B22046032101F092
:1063A000BFFD204601F078FE04E04FF0FF3001E031
:1063B0006FF0010005B0F0BDE0A50108E2A50108FD
:1063C000F0B5012185B0044602F0D4FCA0F13006FE
:1063D000072E49D8684621460322072302F0CCFC49
:1063E0006846264902F08AFC0546684602F006FC2B
:1063F0007DB9684621460322062302F0BDFC6846AB
:106400001F4902F07BFC0746684602F0F7FB0FB914
:106410002DE001251B49684602F032FC2046694602
:1064200002F096FC0746684602F0E8FB1FB1B6B2E0
:106430003046002110E01449684602F021FC204655
:10644000694602F085FC0446684602F0D7FB8CB131
:106450000A36B6B23046394601F062FD304629466A
:1064600001F0D8FD012007E04FF0FF3004E06FF0AD
:10647000010001E06FF0020005B0F0BDE4A50108E5
:10648000E9A50108E0A50108E2A50108F0B5012190
:1064900085B0054602F06EFCA0F13006072E0446DA
:1064A00025D81649684602F0EBFB2846694602F0FB
:1064B0004FFC0746684602F0A1FB0FB1B4B20EE0F4
:1064C0000F49684602F0DCFB2846694602F040FCB2
:1064D0000546684602F092FB65B1263CA4B2204610
:1064E000012101F01DFD204601F096FE04E04FF071
:1064F000FF3001E06FF0010005B0F0BDE0A501083C
:10650000E2A50108F0B5012189B0044602F032FC91
:10651000A0F13007072F06463ED8032268462146E1
:1065200002F050FC1F4904A802F0AAFB204604A96F
:1065300002F00EFC054604A802F060FB55B1BFB2A4
:106540000021384601F0ECFC684602F042FCC1B282
:10655000384617E0144904A802F092FB204604A92B
:1065600002F0F6FB044604A802F048FB74B1263E94
:10657000B6B22946304601F0D3FC684602F029FC49
:10658000C1B2304601F0DEFE012401E06FF00104EB
:10659000684602F033FB01E04FF0FF34204609B0BB
:1065A000F0BD00BFE0A50108E2A5010808B51B4841
:1065B0001B4901F005FA1B481B4901F001FA1B4871
:1065C0001B4901F0FDF91B491B4801F0F9F94FF493
:1065D000614001F045F80A20002101F0A1FC0021F2
:1065E0000A2001F017FD052001F062FF01210A20B9
:1065F00001F010FD052001F05BFF01F009F80F48E4
:106600000F4901F02FF80F480F4901F02BF8BDE8B2
:1066100008400E480E4901F025B800BFEDA501085D
:1066200049630008F9A50108C163000806A601082E
:106630008D6400080565000811A601081DA6010863
:106640000D63000826A60108356300082FA601087F
:106650005167000830B5234A9DB0106851686B46F9
:1066600003C3127A1A7001F095F800F0D9FF0128DF
:1066700022D103A800F0DAFF00F0E6FF044600F0A4
:10668000E9FF19490546194802F033F91022294655
:10669000164802F089F91649144802F02AF903A9AC
:1066A000124802F026F91349104802F022F90F4867
:1066B0002146102202F07AF90F4C684622780F49E1
:1066C0000EF078F9694609224FF6FF7000F0A6FF38
:1066D00023784FF4FA700133237001F0E9FE1DB006
:1066E00030BD00BF68A6010834A601086C1B00205D
:1066F0005AA7010852A60108580B00205EA60108FF
:106700002DE9F84F06460F4691469A460446002565
:10671000E9B2C7EB0903994205F1010511DA3944E1
:106720005AF8218040460EF0C9F94146834620467A
:106730000EF066F95FFA8BF020442023441C0370AE
:10674000E6E72046002300F8013B801BBDE8F88FF8
:1067500070B506469AB00C464868102100F084FFD8
:10676000F2B20546234601A80221FFF7C9FF01A99D
:10677000C2B2A8B200F052FF1AB070BD13B5084CF7
:10678000002100910A460B46204602F049F80549CF
:10679000054A204602B0BDE810400DF065B900BFC3
:1067A0005C0B0020ED620008940E0020013101EB2B
:1067B000420291420BD0030F092B94BF3033373381
:1067C00001F8013C0023000101F8023BF1E77047AA
:1067D0001F4B10B51A88032A04D8042001461880DC
:1067E00007F0ACF94FF000604FF4A04107F0FAF861
:1067F0000124184B184821461C7007F0B3FB06F023
:1068000099F905F07FFE2146402007F06DFC6FF0FE
:106810007F4005F0E9FFE72006F062F80F4B1C709F
:1068200005F0BAFE7D2007F083FC18B10C4B1C70FC
:1068300007F092FC40F6B83005F008FF06F05EFC69
:1068400006F0D8FE074A01231370074A137010BDE3
:10685000801C00205C1C002000043000981B0020DD
:1068600024260020201C0020161C002038B52F4CA8
:106870002388042B04D805210420218007F05EF929
:106880002B4D2B7813B12B4802F084FE2B7853B19B
:106890002388052B05D8254B06210420198007F0F5
:1068A0004DF902F0FBFE2B7863B1234B1B784BB9FB
:1068B000224B1B7833B1224B1B781BB9214B1B7821
:1068C000002BE3D0204B1B78002BDFD11F4B1B7814
:1068D000002BDBD11B4B1B78012B0FD01C4B6BB15A
:1068E0002388062B05D8114B07210420198007F0B7
:1068F00025F9FFF75BFE134B01221A70154B002B95
:10690000C4D02388072B05D8084B08210420198000
:1069100007F014F9FFF79EFE2388082BB6D8034B27
:1069200009210420198007F009F9AFE7801C002035
:10693000201C00202D7C0008D51B0020161C0020E8
:10694000961B0020640B0020971B002024260020AB
:10695000AD65000855660008F8B5524B1A6812B1CB
:106960001A68013A1A60504B504D1B783BB1504B9E
:106970001B78002B28D04F4B002B47D124E04E4CE6
:106980002368264613B12368013B0FE04B4B1B786D
:10699000D3B94B4B1B78BBB94A4B1B78A3B94A4FB1
:1069A0003B782BB1E72006F00FF8142323600BE0AF
:1069B0002B78002B2DD1E72005F0C0FF434B1B782F
:1069C000002B34D0322333602B7833B1404C237802
:1069D0001BB92EE05A6801325A603E4B1A68B2F574
:1069E0007A7F0FD300221A6007F014FB3A4B4FF660
:1069F000FF711A888A4254D019800420BDE8F840FB
:106A000007F09CB81A6801321A60F8BD01F056F917
:106A1000DAE7324B1B78002BCDD04FF6FF7005F034
:106A2000E3FEE72005F05CFF01233B70CCE7642325
:106A3000C9E7234B1B788BB1294B47F22F5259687A
:106A40009142C7D9BFF34F8F264A274BD16801F433
:106A5000E0610B43D360BFF34F8FFEE7174D2B78F8
:106A600003F0FF0633B9304606F0C4F840F6B733FA
:106A700098420DD8002006F0BDF841F657339842F1
:106A8000ABD9002006F0BEF8184B01221A70A4E71B
:106A9000304606F0B7F82378002B9ED101232B70E7
:106AA0009BE7F8BD2C2600203C1C0020201C002069
:106AB000C8100020BD7C000828260020C61B00202E
:106AC000971B0020991B0020981B0020951B00207D
:106AD000D51B002030260020801C0020961B0020A3
:106AE000640B002000ED00E00400FA05C41B002048
:106AF00008B5094B186006F0A7FA002006F0F0FA76
:106B0000064805F023FD06F0B7FA06F0D5FABDE811
:106B1000084008F009BA00BFD0010020A08601009B
:106B2000074B1B68052B08D1064B1A7A012A04D1A2
:106B3000987A1B7BC01AC0B270470020704700BF14
:106B4000841C0020640B00200D4B10B51B68052B26
:106B500013D10C4C237A012B0FD16289A389D31A4C
:106B6000012B04D100230320237208F034FBA389F6
:106B70005A1CA2811C44A07B10BD4FF0FF3010BDF9
:106B8000841C0020640B002008B50C4B1B68052BEF
:106B900012D10B4B1A6D99180132B2F5807F08BFE4
:106BA000002281F854001A6506F01CF920B1642017
:106BB000BDE8084005F0CABC08BD00BF841C002029
:106BC000640B0020F8B5234B93F85421012A3FD0E1
:106BD000D3F85821196DB2F5807F04BF0022C3F8A5
:106BE0005821D3F858411B4A8C4203D1002382F824
:106BF0005431F8BD8CBFC4F58071C4EB0101C2F8FB
:106C00005C11D3F85C61134D402EA2B207D9403419
:106C1000403EC5F85841C5F85C61402706E0344461
:106C20000021B7B2C5F85841C5F85C110A480124E3
:106C30001044C0213A4683F8544108F047FA2046F0
:106C4000394608F04BFB2046BDE8F84008F0B0BAE2
:106C5000F8BD00BF640B0020B80B0020094B10B535
:106C600093E8140008331B68D0180AD0064908229C
:106C7000FFF79CFD204605490422BDE81040FFF7C0
:106C800095BD10BDE8F7FF1F7F0100208F01002098
:106C900013B5084C002100910A460B46204601F02E
:106CA000BFFD0549054A204602B0BDE810400CF082
:106CB000DBBE00BFC40C0020ED620008940E002073
:106CC00030B50C4C0C4D8FB0204601F01BFE294610
:106CD00001A80DF095FE01A9204601F01FFE05F167
:106CE0002A0101A80DF08CFE204601A901F001FE49
:106CF0000FB030BD6C1B0020147A0108064B10B594
:106D00005A8BFF2A07D8198B01325C180131C9B29E
:106D1000207719835A8310BDCC0C002038B5094C5C
:106D2000658B65B1E38AE2180133DBB2E382157F3C
:106D300001F00EFD638B013B638301F01FFD2846CC
:106D400038BD00BFCC0C0020F8B505468668FFF7BB
:106D5000E5FF0306044601D50020F8BD3070374634
:106D6000BB1BDBB2A34204D2FFF7D8FF07F8010F29
:106D7000F6E7AB68DA88DE78AA8018890B4A688063
:106D8000558B03F10A0105B9D570094A1578B5424A
:106D900002D155888542DFD016705080A4F10902D7
:106DA00018460B3C0DF0EEFAE0B2F8BDCC0C00201A
:106DB0000000002038B50C4C054601F0C9FCD4F8A1
:106DC000C030B4F8C42045F080005A6101F0C4FE20
:106DD00001F0C2FED4F8C030B4F8C42005461A61F0
:106DE00001F0CCFC284638BD1000002008B5012079
:106DF000FFF7E0FF00F01F0008BD000030B5144BA6
:106E00008FB093F81C31022B08D101A811490DF065
:106E1000F7FD01A9104801F06CFD14E003F0FB033D
:106E2000032B10D1002425460620FFF7C3FFC0F333
:106E30004110A04002340543052001F07FFB082CDF
:106E4000EDB2F1D101E0002000E028460FB030BDE6
:106E5000CC0C0020487A01086C1B00201C20FFF796
:106E6000A9BF000008B5084B2820D3F8C020B3F80C
:106E7000C430136101F062FE002001F031FEBDE874
:106E800008400C2001F0E4BD1000002001F064BEB9
:106E900070B50D4C0D46064601F05AFCD4F8C030D2
:106EA000B4F8C42046F0C0005A61FFF7EFFF28464F
:106EB000FFF7ECFFD4F8C030B4F8C420BDE8704050
:106EC0001A6101F05BBC00BF1000002038B5054618
:106ED0000C46C9B2FFF7DCFF681C210AC0B2BDE84E
:106EE0003840FFF7D5BF70B506460D46002430196F
:106EF000295DC0B20134FFF7CBFF082CF7D170BD7C
:106F000070B50E4605461446FFF754FF20EA04000C
:106F1000C1B2344028462143BDE87040FFF7B8BFF6
:106F200008B503281ED8DFE800F002050E110C207A
:106F3000282101E00C202C213F22FFF7E1FF162041
:106F4000022103220AE00C203C21F5E70C2020213D
:106F50003F22FFF7D5FF032116200A46BDE808406F
:106F6000FFF7CEBF08BD0000254B70B5D3F8A020B9
:106F7000B3F8A410D268044611421E463DD1FFF773
:106F800035FF20F01003013BDBB2012B054610D981
:106F9000162C1ED0192C11D0082C1CD1D6F8A030DC
:106FA000B6F8A42006205A6101F0C8FA0220032195
:106FB00008E0FFF71BFFA842FBD0E9E7162D0AD136
:106FC000022009211F22FFF79BFF012001F0B6FAE2
:106FD00001E0192DF3E721461F220220FFF790FF61
:106FE000082D14BF0120B42001F0A8FAFFF7FEFE1F
:106FF000A04214BF4320402070BD442070BD00BF9C
:107000001000002010B50446214608201F22FFF77B
:1070100077FF104B93F81C31072B07D10C20002C65
:1070200014BF042100210422FFF76AFFFFF7DEFEF0
:10703000062801D0092802D1962001F07FFA082005
:10704000FFF7B8FE00F01F00A04214BF432040200D
:1070500010BD00BFCC0C00202DE9F8431E46CB1814
:107060007F2B81460F46904627DC154D01F070FBC3
:10707000D5F8C030B5F8C42060205A61FFF706FF8C
:107080000024E3B2BB4205D219F80400FFF7FEFE6C
:107090000134F6E70024E3B2B34205D218F8040045
:1070A000FFF7F4FE0134F6E7D5F8C030B5F8C42098
:1070B0001A61BDE8F84301F061BBBDE8F88300BF89
:1070C0001000002070B506460D461446FFF78EFEF0
:1070D00000F0EF0002281CD01920FFF745FF2346DF
:1070E00030460A212A46FFF7B7FF0B4C0220002347
:1070F00001461F222371FFF703FF2379002BFCD0E9
:10710000054B002202201A71FFF754FEC0F347100E
:1071100070BD442070BD00BFCC0C00202DE9FF41A4
:10712000074688461546002D40D0642D34BF2E46B4
:10713000642606F10B038DF804304FF6FF731D4CE7
:107140009F420CBF412361238DF8053098238DF8B1
:107150000630A37801A85A1C8DF8073041F2342379
:10716000ADF808302388A27041463246ADF80C30A5
:10717000ADF80A70FFF7A6FF2346A0B103280ED092
:1071800001D8012802E0052805D040280FD11A892E
:1071900001321A810BE063890133638107E0A3891F
:1071A0000133A38103E0AD1BEDB2BCE7284604B078
:1071B000BDE8F081CC0C0020F8B51D4D01F0C8FAF7
:1071C000D5F8C030B5F8C42020205A61FFF75EFE24
:1071D000002001F0C1FCC31EDBB27C2B04462E460E
:1071E0001DD8144F7B8BC3F5807398420CDAFFF7E0
:1071F00085FD0025002001F0AFFC0135FFF77EFD85
:10720000EBB2A342F6D30AE0002500200135FFF7D8
:107210003DFEEBB2A342F8D3FB890133FB81D6F8E4
:10722000C030B6F8C4201A61BDE8F84001F0A6BA33
:1072300010000020CC0C002070B5314D01F088FA10
:10724000D5F8C030B5F8C4208F205A61FFF71EFE74
:10725000002001F081FCD5F8C030B5F8C420044608
:107260001A61002C48D0660702D504F0FB04F8E749
:10727000250725D5FFF7BAFD00F0EF03062B214DBA
:1072800001D0112812D10720FFF794FD28750620A0
:10729000FFF790FDC0F3C0101A4E687530B1FFF7CC
:1072A0008BFFF3880133F3800123F37001232B71EB
:1072B00004F0F7041620FFF757FE4028FAD1D0E774
:1072C000600606D50F4B04F0BF041A8A01321A82F9
:1072D000C7E7A10702D504F0FD04C2E7E20702D523
:1072E00004F0FE04BDE72306BBD5064B04F07F0483
:1072F0009A7C01329A74B4E7BDE8704001F03EBA5E
:1073000010000020CC0C0020C30707B501460CD4A8
:1073100001A801F50021022206F031F99DF80400D0
:107320009DF8053043EA002001E04FF0FF3003B044
:107330005DF804FB2DE9F04105460E461746002492
:1073400004F10108E4B2BC4206D228194000FFF75C
:10735000DBFF30554446F3E7BDE8F08107B509206F
:107360000DF106010222FFF7E5FFBDF8060003B0AC
:107370005DF804FB014608220020FFF7DBBF000098
:1073800030B591B0FFF76EFD0A20002100F0C8FD76
:107390004D4B0E20D3F8A020B3F8A4300021536148
:1073A000FFF776FD03211F220220FFF7A9FD4FF40E
:1073B000FF7001F0C3F82C203021F022FFF7A0FD70
:1073C000FFF74CFD414C032884F81C01254609D0E9
:1073D000072811D002285AD10B20FFF713FE3C4892
:1073E0003C4904E00B20FFF70DFE39483A4901F013
:1073F00095FA0520802115E00120FFF791FD01207D
:10740000FFF700FE0F220520E121FFF779FD334948
:107410002F4801F083FA122004210F22FFF770FD9C
:10742000042020210A46FFF76BFD1620FFF79CFD84
:1074300041F234212220FFF749FDFFF78FFF01467B
:107440002020FFF743FD01A8FFF794FF01A92420A6
:10745000FFF749FD0F20FFF7ADFC0E200C21FFF7D1
:1074600017FD0B20022100F05BFD0B201C490122BF
:1074700001F020F9FFF7BAFC162814D003A8194927
:107480000DF0BEFA03A9124801F033FA0BE01649D9
:107490000F4801F02EFA0E4894F81C110A2201F050
:1074A0009DFA00200EE095F81C31022B03D1FFF766
:1074B00055FFC1B202E0FFF7A1FC01462D20FFF706
:1074C000E7FC012011B030BD10000020CC0C0020E2
:1074D0006C1B002071A6010893A60108B5A601083F
:1074E000397200085E7A0108D7A6010810B5094C68
:1074F0000021162220460CF0ABFFFFF72FFF208063
:10750000FFF73EFF28B904480449BDE8104001F0E8
:1075100005BA10BDCC0C0020481B0020FAA60108BB
:1075200007B5C20703460CD40A0A8DF804208DF86B
:10753000051001A803F50021022205F0C2FF022078
:1075400001E04FF0FF3003B05DF804FBF8B50446EE
:107550000D46164600235F1CDBB2B34206D2E0188C
:10756000E95C4000FFF7DCFF3B46F4E7F8BD0000B4
:1075700007B502A921F8020D02220920FFF7E6FF54
:107580002020BDF80610FFF7A1FCBDF80620024B35
:107590001A8003B05DF804FBCC0C0020054B0146BB
:1075A00003F59272C3F8202103480022C3F8882112
:1075B00001F0F8BDCC0C00206C1B00202DE9F0413F
:1075C00005460C2088460CF0B3FB0E4E0446C6F868
:1075D0008C0128460DF072FA01300CF0A9FB294607
:1075E00007460DF00DFA28460DF068FA00233B54CB
:1075F000D6F8883184E88001A360C6F88841BDE8E8
:10760000F08100BFCC0C00200A4600210DF0BCBB6D
:10761000FFF76CBFFFF7ACBFFFF7A0BEFFF77EBD63
:10762000014BD878704700BFCC0C002010B5054C3A
:10763000C4F8BC0104F5DA70FFF786FB84F8B401E6
:1076400010BD00BFCC0C0020014B187D704700BF5F
:10765000CC0C0020014BB3F8B6017047CC0C0020D5
:10766000FFF79CBFFFF7AABFFFF7CEBF13B5084CCB
:10767000002100910A460B46204601F0D1F8054949
:10768000054A204602B0BDE810400CF0EDB900BF3D
:107690008C0E0020ED620008940E00202DE9F041D0
:1076A000ACB0364801F06AFD002863D0334801F0E1
:1076B00063FDC5B2082D324C3CD00D2D48D1D4F815
:1076C000203100221A702F492C4801F012F904F5DC
:1076D00092702D490DF094FA01250E9000202A4950
:1076E0000DF08EFA0EAE1E2D2F4646F8250004D161
:1076F000D4F88C51DDF8388004E001350028EDD154
:10770000F6E7AD6855B140462968FEF7F1F9002863
:10771000F7D16B6838463146984707E01B4901A806
:107720000DF06EF9154801A901F0F8F8FFF7C8FA55
:10773000174B0AE01148294601F0DFF8D4F8203150
:1077400004F592729342ACD9013BC4F82031A8E70A
:10775000D4F8203104F592729B1A622BA1DC074801
:10776000294601F0CAF8D4F820315A1CC4F8202167
:107770001D7096E72CB0BDE8F08100BF6C1B0020A7
:10778000CC0C0020D5A801085BA701084E7B01089E
:10779000F00D0020FFF782BF38B504460D46AC421D
:1077A00003D254F8043B9847F9E738BD08B50748B9
:1077B0000749FFF7F1FF07480749FFF7EDFFBDE86D
:1077C000084006480649FFF7E7BF00BF20AC0108A4
:1077D00020AC010820AC010878AC010878AC0108A5
:1077E00078AC01080CF0ACBA08B5072006F026F812
:1077F000FEE70000074A08B5136818441060064AFF
:10780000904204D9082006F019F80CF05BF91846EC
:1078100008BD00BF04000020004800204FF0FF30EA
:1078200070470120704708B50C2006F007F8FEE706
:10783000014B1868704700BF980E0020064B0246A7
:10784000582000FB013101F1080303CB10605160A7
:1078500018689060704700BF980E0020014BD3F865
:1078600064017047980E0020064B0246142000FB6E
:10787000013101F5B67303CB106051601868906058
:10788000704700BF980E002038B50546064C28B159
:1078900005F04CF8012384F8303238BD04F0F4FFD1
:1078A00084F8305238BD00BF980E00200E4B2DE9F1
:1078B000F041D3F8647180460024BC4211DA1425EB
:1078C0006543094E414606F5B67028440C220DF07A
:1078D00025F920B93544D5F86801BDE8F0810134B7
:1078E000EBE70020BDE8F081980E0020044B012258
:1078F0001A70044B00224FF4C0201A6005F074BCCB
:10790000971B0020680B0020034A00231370034AD2
:10791000136005F0C7BC00BF971B0020680B002058
:10792000024B00221A6005F087BC00BF680B0020E4
:107930002DE9F04788B0804668460D4601F0A0F971
:107940001E4B0024D3F800A054452DDA55B3582619
:1079500066431A4F414607F1080030440C2207F1F4
:1079600004090DF0DBF8E8B928460DF0A7F806F198
:107970001003402834BF02464022294609EB030089
:10798000FEF740F83E44012386F85830694604A8C3
:10799000746801F097F904A8A047044604A801F010
:1079A0002DF903E00134CFE74FF0FF34684601F0D2
:1079B00025F9204608B0BDE8F08700BF980E0020EA
:1079C0002DE9F84F0446894600293DD000283BD0D8
:1079D0001E4D2E68042E37D005F108074FF0000821
:1079E00005F1040AB0450DDA57F8043C4B4505D1C2
:1079F000384621460C220DF091F828B308F1010811
:107A00005837EFE74FF0580808FB06F805EB080772
:107A100008F1100000214022C7F8049050440CF0F7
:107A200017FD0AEB0800002104300C220CF010FDB9
:107A30002068616807F1080303C3A0680136186075
:107A4000002387F858302E60BDE8F88F980E00208C
:107A500010B5064C206803F06BF82368013303D09F
:107A6000431E5842584110BD012010BD080000209F
:107A700070B50B4B05461B780C4673B9094B1B7848
:107A80005BB9FFF7E5FF034638B9074A2946106896
:107A90002246BDE8704004F005B84FF0FF3070BDDD
:107AA000D41B0020D51B0020080000202DE9F04148
:107AB000264B86B01B7880460F46002B41D1244BC5
:107AC0001B78002B3DD1FFF7C3FF0446002838D1B7
:107AD000204D8DF80C008DF80D008DF80E008DF8FE
:107AE0000F00286806AA460902EB8606012100F06D
:107AF0001F02914056F80C2C01300A4346F80C2C1A
:107B000041F28832059204AA009203A92246234634
:107B1000049403F0A9FE002815DD2B6806AA590974
:107B200002EB810151F80C5C03F01F02154115F0C6
:107B3000010008D0184641463A46234603F034FF78
:107B400001E04FF0FF3006B0BDE8F081D41B00200B
:107B5000D51B00200800002030B51E48ADF5797D0A
:107B600007F027FC002832D11B4B15A804931B4BB0
:107B70005FAD05931A4B039006931A4B0CAC079319
:107B8000194B02950893194B0993194B0A93194BFA
:107B90000B93194B0C93194B0D93194B0E93194BD7
:107BA0000F93194B1093194B1193194B1293194BB7
:107BB0001393194B149305F0BBFB284605F0BEFB4D
:107BC00000940448154902AA04AB07F0F9FB0DF52F
:107BD000797D30BDCC100020717A0008AD7A0008A4
:107BE000ED780008097900086DD3000821790008B4
:107BF00089780008AD840008317800083D780008D5
:107C0000317900085D78000869780008C97E0008AD
:107C1000AD78000849D300085DD30008E8F7FF1FDE
:107C2000014808F00EBA00BFCC10002030B5022089
:107C30008DB00146112203F05DFD051E28DB07A86B
:107C4000144907F0E0FC0223ADF80C3016238DF840
:107C50000E3033238DF80F30E0238DF810300023E1
:107C60008DF8113001238DF81230BB238DF81330BD
:107C7000032403AB009310230193284607A9132282
:107C8000002303F019FF013CF3D1284603F060FD07
:107C90000DB030BDE8F7FF1F10B5074CFFF75CFFD4
:107CA000204607F089FB204607F0FDFE0446FFF75B
:107CB000BDFF204610BD00BFCC10002038B5114CD0
:107CC000D4F8445A2DB1D4F8443A013BC4F8443AAC
:107CD00038BDD4F8483A0C4A52F8230004F0ACFD01
:107CE000E72004F0FDFD6423084AC4F8443AD4F8C0
:107CF000483A526801339342C4F8483AA8BFC4F8DE
:107D0000485A38BD980E0020707B010808000020FA
:107D10007FB502200121062203F0ECFC041E24DBC7
:107D20000223ADF8003000238DF8023035238DF8A2
:107D300003304FF4FA5008238DF804308DF80530E5
:107D40008DF806308DF8073001F01CFC69461022D2
:107D50000546204603F05AFD0646284601F012FC6F
:107D6000204603F0F5FC304601E04FF0FF3004B050
:107D700070BD000010B5064C2068002805DB03F03C
:107D8000E7FC4FF0FF33236010BD002010BD00BFA3
:107D900008000020F0B5A7B0FFF7ECFF022001219A
:107DA000062203F0A7FC324F0028386050DB314D2B
:107DB0000223A5F84C3A162385F84E3A05A833233A
:107DC00085F84F3A05F080FA002300939DF81430AF
:107DD0003BB1012B17D0284B01AC03F1100E22460A
:107DE00002E0069B009313E018685968264603C614
:107DF000083373453446F7D10FCA06AC07C424F8DC
:107E0000023B1B0C23700A24009B0BB9013C22D1BE
:107E1000009B0BB9194B0093009B4FF4FA501A0EBC
:107E200085F8502A1A0C85F8512A1A0A85F8533A0F
:107E300085F8522A01F0A6FB114904461022386841
:107E400003F0E4FC0546204601F09CFB28460CE0CC
:107E50004FF0FF3009E006A87E210CF0B9FE6A461B
:107E600081B206A803F09AFCCEE727B0F0BD00BFB0
:107E700008000020980E002010A7010804E5D03665
:107E8000E41800200F4B2DE9F041D3F864718046CF
:107E90000024BC4211DA142565430A4E414606F51A
:107EA000B67028440C220CF039FE20B9354495F800
:107EB0007801BDE8F0810134EBE74FF0FF30BDE819
:107EC000F08100BF980E002008B5FFF7DBFF0138F6
:107ED000082803D8024B1844007F08BD022008BDC3
:107EE000707B010837B50B4C002104F65C250B466E
:107EF00000910A46284600F093FC28460649074AA6
:107F00000BF0B2FD04F50D7003B0BDE8304007F092
:107F10003BBA00BF980E0020ED620008940E0020CE
:107F200014282DE9F34104460E4669D8FF2967D08D
:107F300000F02CFE20B1A4F10D039BB2022B5FD9FF
:107F400000F08CFB08B1012C5AD901F0C3F820B124
:107F5000A4F112039BB2012B52D92B4D24012B19F2
:107F60002F59B3F80480294B9F4201D1042003E02C
:107F7000274B9F4203D10820012106F0C1F8ADF83C
:107F80000480062E38D8DFE806F0040D13191F28E8
:107F9000310010238DF8073003238DF806302C4470
:107FA000002328E004238DF807302C44012322E02D
:107FB00048238DF807302C4402231CE028238DF839
:107FC00007302C44032316E018238DF807300323D1
:107FD0008DF806302C4404230DE01C238DF8073067
:107FE00003238DF806302C44052304E000238DF88C
:107FF00007302C440623A373384601A905F054FF2B
:1080000002B0BDE8F08100BF100000200008014070
:10801000000C01401428F8B505460F4638D81D4E0F
:10802000040133199B7B5A1ED2B2022A30D9062B87
:108030002ED0FF2B2CD000F0A9FD28B1A5F10D0307
:108040009BB2022B00D8F8BD00F008FB10B1012D47
:1080500000D8F8BD01F03EF828B1A5F112039BB29B
:10806000012B00D8F8BD33199B7B042B03D1284684
:108070000021FFF755FF012F04D13219335992889F
:108080001A61F8BD27B93219335992885A61F8BD7F
:10809000F8BD00BF10000020142870B5044616D8A3
:1080A0001C4E050173199B7BFF2B10D0043BDBB2E8
:1080B000012B0CD900F06AFD20B1A4F10D039BB295
:1080C000022B04D900F0CAFA18B1012C01D8002003
:1080D00070BD00F0FFFF20B1A4F112039BB2012B91
:1080E000F5D973199B7B062B07D10A4B93F85011D6
:1080F000FF29ECD02046FFF713FF2E44054BB27B3F
:10810000B188585912B905F023FF70BD05F01AFF68
:1081100070BD00BF10000020F0B54FF4004091B0DA
:1081200005F0BAFF0120014605F0DEFF01214FF402
:10813000C06005F0E5FF334805F024FD324B002414
:108140000593324B2F4806930A23089380230A9302
:108150004FF400730B934FF400630C9305A94FF495
:1081600000530E9301254FF400274FF46026079427
:1081700009940D940F9405F07DFD254869460097FC
:108180008DF804408DF80540029603948DF8105048
:1081900005F032FC1F48694600978DF804408DF8C1
:1081A0000540029603948DF8105005F025FC184800
:1081B000294605F045FC164805F054FC144805F026
:1081C00056FC0028FAD1124805F055FC104805F07D
:1081D00057FC0028FAD10F48012105F031FC0D4869
:1081E00005F040FC0B4805F042FC0028FAD1094894
:1081F00005F041FC074805F043FC0028FAD111B016
:10820000F0BD00BF080002404C24014000190020CE
:108210000024014000280140092870B504469CBF95
:1082200000F10A04A4B200F0B1FC30B1A4F10D03D6
:108230009BB2022B01D8002070BD00F00FFA00F0B5
:1082400049FF20B1A4F112039BB2012BF3D9142CE6
:10825000F1D8374D2601AB199A79FF2AEBD095F862
:108260005211914206D09B7B2046062185F8503161
:10827000FFF756FE95F85331012B05D1FFF74CFF60
:108280002B4B002283F853212E44B17995F85231BB
:10829000274C8B420FD02748012294F8513105F02A
:1082A000FCFB94F851312448B179012205F0F5FB2B
:1082B000B37984F852310021204C002344F8213056
:1082C00001310A29F8D11E4805F005FD1A4801219F
:1082D00005F02BFC1A48012105F0EAFC15480121A4
:1082E00005F0B7FB1348012105F0CEFB022005F095
:1082F000F5FC0028FAD0022005F0FEFC0D48002114
:1083000005F0A7FB0E48002105F0D2FC00231A4619
:1083100054F8230054F82310013389B201EB1041C3
:108320000A2B0A44F4D11420B2FBF0F290B270BDD3
:108330001000002000240140002801400019002006
:10834000080002402DE9F043142889B0044688460D
:1083500000F29E80504F0601BB199B68002B00F075
:10836000978000F013FC28B1A4F10D039BB2022BFF
:1083700040F28E8000F072F910B1012C40F288803A
:1083800000F0A8FE20B1A4F112039BB2012B7FD90B
:10839000BD19AB7B13F0FB0F7AD1404B01201A685B
:1083A0003F4B0146B2FBF3F94BF6803303FB08F871
:1083B000FF2398FBF3F805F0A3FE20460421FFF706
:1083C000AFFDAB6809F1FF39B3F1804F1FFA89F9AE
:1083D0001FFA88F802D10120014609E0314A934290
:1083E00008BF022003D0304A934203D10420012168
:1083F00005F092FEBC1900254BF67F33A06801A959
:10840000ADF80830ADF80A50ADF80650ADF804905C
:1084100005F06EFF6023ADF81850A589ADF8103057
:108420000123ADF81230ADF8168045B9A06804A953
:1084300005F0A8FFA068082106F0E4F81FE0042D6D
:1084400008D1A06804A905F0E1FFA068082106F0A2
:10845000E1F814E0082D08D1A06804A906F01AF884
:10846000A068294606F0E0F809E00C2D07D1A068C5
:1084700004A906F051F8A068082106F0DDF83E4492
:10848000B068012106F0B2F8B068012106F08BF85F
:1084900009B0BDE8F08300BF10000020C402002036
:1084A00000366E01000400400008004004F098BF50
:1084B00030B54FF47A7385B01C4C009323680546A1
:1084C0000344236004F08CFF019005F0A3FD04F049
:1084D00087FF0290029A019BD31A0393039B002B00
:1084E00003DA019B029A13440393039BAB421AD213
:1084F0000F4B1B78002BE8D00E4B1B78002BE4D1E0
:10850000039A009B9A4203D22368B3F57A7FDCD3A7
:10851000039B03F57A73009301F0C0F8064B1B78B8
:10852000002BF9D1D1E705B030BD00BFD01B002032
:10853000201C0020D51B0020971B002004F006B84B
:1085400013B5084C002100910A460B46204600F066
:1085500067F90549054A204602B0BDE810400BF016
:1085600083BA00BF28190020ED620008940E002095
:10857000024B18785B78C01A704700BF3019002092
:10858000064B5A781978914204D9991801328878A3
:108590005A7070474FF0FF30704700BF301900200D
:1085A000054B5A781978914202D91344987870474C
:1085B0004FF0FF30704700BF3019002070470000B7
:1085C000014B0360704700BFF07B010810B5034BFF
:1085D00004460360FFF706F9204610BDF07B010852
:1085E000F8B5094B054693F82230164653B10C46B0
:1085F0008F18BC4206D02B6828469B6814F8011BD4
:108600009847F6E73046F8BD3019002010B50C4BFE
:10861000012293F822408CB193F823401F2C02D9F9
:108620004260002010BD93F824001C1884F8251027
:10863000411CC9B283F8241083F82310104610BDE2
:1086400030190020002242604FF47A728260014AA1
:1086500002607047A07B010870477047014B93F898
:10866000590070473019002073B50E4C002104F1F9
:1086700064050D4E0B4600910A46284600F0D0F8DE
:108680006C343246094928460BF0EEF92046FFF7D4
:10869000D9FF07492046324602B0BDE870400BF0D2
:1086A000E3B900BF30190020940E0020ED620008ED
:1086B000C1850008224BF0B5000116461A1818585B
:1086C000204B9788C31A5842584185B0C7F34605D6
:1086D0000023DCB201330DB16D08FAE71A4B43F801
:1086E0002410214605F06EFC012E02978DF80C50E7
:1086F00006D003D3022E06D10C2302E0102300E0A3
:1087000008238DF80D30012302A88DF80E3005F0F6
:10871000FDFA092C12D80D4B042C1B5D01A88DF815
:1087200004308CBF0E230D238DF8053000238DF807
:10873000063001238DF8073005F020F905B0F0BDB3
:1087400010000020000C0140AC190020C07B010883
:10875000094B4022C3F880208022C3F880204FF4C8
:108760000072C3F880204FF48062C3F880204FF479
:108770000002C3F88020704700E100E0074B402270
:108780001A6080221A604FF400721A604FF48062FF
:108790001A604FF400021A60704700BF00E100E069
:1087A00008B5034B53F8203003B1984708BD00BF0C
:1087B000AC19002013B5084C002100910A460B4665
:1087C000204600F02DF80549054A204602B0BDE8D4
:1087D00010400BF049B900BFEC190020ED62000811
:1087E000940E00202DE9F041002407460E46254650
:1087F0003B1919790A22304600F0EEF82E21804606
:10880000304600F07AF801344044032C0544EFD19F
:108810003046F9790A2200F0DFF82844BDE8F081FB
:1088200030B58371034D9DF80C30056001714271C4
:10883000C37130BDD87B01080548064B064903606B
:10884000064A0023037143718371C3710BF00CB9A5
:10885000F4190020D87B0108ED620008940E002076
:1088600013B5084C002100910A460B462046FFF73D
:10887000D7FF0549054A204602B0BDE810400BF07D
:10888000F3B800BFFC190020ED620008940E002030
:10889000014B0360704700BFF07B0108F8B5064646
:1088A0000C468F180025BC4207D0336830469B68C1
:1088B00014F8011B98470544F5E72846F8BD000069
:1088C00010B5034B04460360FEF78CFF204610BD35
:1088D000F07B010838B505460C46084641B10CF05E
:1088E000EDF82B680246DB6828462146984738BDDC
:1088F00038BD08B5FFF7EEFF08BD08B503689B68F3
:10890000984708BD38B50D210546FFF7F6FF0A2147
:1089100004462846FFF7F1FF204438BD38B5044629
:10892000FFF7D8FF05462046FFF7ECFF284438BD87
:1089300030B500238BB08DF82430012A98BF0A226D
:108940000DF12304B1FBF2F303FB1211CDB2092D9B
:1089500094BF30353735EDB2214604F801590BB1DB
:108960001946EFE7FFF7B6FF0BB030BDF8B5064686
:108970000D46144622B90368C9B29B689847F8BDF2
:108980000A2A0CD100290BDA2D21FFF7B6FF694224
:10899000074622463046FFF7CBFF3844F8BDD2B237
:1089A000BDE8F840FFF7C4BFFFF7E0BF38B50446A5
:1089B000FFF7DCFF05462046FFF7A4FF284438BD3B
:1089C00010B522B90268C9B29268904710BDD2B200
:1089D000BDE81040FFF7ACBFFFF7F2BF38B5044663
:1089E000FFF7EEFF05462046FFF78CFF284438BD11
:1089F00013B5084C002100910A460B462046FFF7AC
:108A00000FFF0549054A204602B0BDE810400BF0B3
:108A10002BB800BF0C1A0020ED620008940E002055
:108A200013B5084C002100910A460B462046FFF77B
:108A3000F7FE0549054A204602B0BDE810400BF09C
:108A400013B800BF141A0020ED620008940E002035
:108A5000142810B504463DD84FF48050012105F08C
:108A60004FFB0D200421FFF75BFA0F200421FFF7D5
:108A700057FA0E200121FFF753FA20460021FFF795
:108A80004FFA20460121144CFFF7C4FA002323803B
:108A9000A380A37C4FF4827262801BB90223E3801F
:108AA000012323814FF400736381E37C13B90A4BE4
:108AB00008229A81237D0BB9074AD38107230748EF
:108AC0000549238205F0D4FB0448012105F0EFFBA2
:108AD0000123637510BD00BF1C1A00200030014047
:108AE00038B5144C0546637D1BB11348002105F0D1
:108AF000DEFB0123032D0FD8DFE805F00205070B8D
:108B00000023E38007E0002204E00223E380002347
:108B100001E00222E28023810748064905F0A8FB14
:108B2000637D1BB10448012105F0C1FB0123A3743F
:108B300038BD00BF1C1A00200030014010B5044CA5
:108B4000A0812146034805F093FB0123E37410BD87
:108B50001C1A00200030014010B504460A480221CA
:108B600005F0BFFB0028F9D00748214605F0B4FB0B
:108B70000548012105F0B5FB0028F9D0024805F0B1
:108B8000ADFBC0B210BD00BF00300140014B587DAD
:108B9000704700BF1C1A00207047000013B5084C36
:108BA000002100910A460B462046FFF739FE054991
:108BB000054A204602B0BDE810400AF055BF00BF8C
:108BC000341A0020ED620008940E002013B5084C02
:108BD000002100910A460B462046FFF721FE054979
:108BE000054A204602B0BDE810400AF03DBF00BF74
:108BF000401A0020ED620008940E002010B50446D3
:108C000000680BF09DF8204610BD10B504460068C2
:108C100008B10BF095F800232360A360636010BDDA
:108C200038B504460D46006801310BF07FFC10B1E9
:108C300084E82100012038BD036810B5044613B153
:108C400043688B4207D22046FFF7EAFF20B1A368B2
:108C50000BB922681370012010BD70B50E46114685
:108C600004461546FFF7E8FF18B92046FFF7CDFF89
:108C700004E0A560206831460BF0C2FE204670BDBE
:108C800038B50023044603604360836003730D46D8
:108C900039B108460BF012FF294602462046FFF77D
:108CA000DCFF204638BD884210B50B46044607D08D
:108CB000096819B19A68FFF7D0FF01E0FFF7A5FF37
:108CC000204610BD10B50023044603604360836056
:108CD0000373FFF7E8FF204610BD38B505460C4684
:108CE00041B108460BF0EAFE214602462846FFF74E
:108CF000B4FF01E0FFF789FF284638BD826808B558
:108D00000B4612B919B9012008BD11B903681878CA
:108D100002E00068FCF7ECFED0F1010038BF002053
:108D200008BD10B58B688468E41AA2420CD80068AC
:108D300068B1096851B110441A460BF0EFFED0F14A
:108D4000010038BF002010BD002010BD084610BD36
:108D500082688B689A4202D30022FFF7E2BF0020AC
:108D600070478368994203D2006810B1405C704735
:108D700000207047FFF7F5BF9A422DE9F041074602
:108D80000D4614461E4601D93446164638460C494F
:108D9000FFF776FFAB689C420FD89E4228BF1E4665
:108DA0002B68002213F806809A552968384621441A
:108DB000FFF793FF2B6803F806803846BDE8F08183
:108DC000D7A8010810B58B680446FFF7D5FF2046E9
:108DD00010BD006808B10AF07DBE704713B5084C9D
:108DE000002100910A460B462046FFF719FD054970
:108DF000054A204602B0BDE810400AF035BE00BF6B
:108E0000481A0020ED620008940E002013B5084CAB
:108E1000002100910A460B462046FFF701FD054957
:108E2000054A204602B0BDE810400AF01DBE00BF52
:108E3000501A0020ED620008940E002038B5184C3E
:108E400094F92C305BB394F82D3043B305F0ACF9B2
:108E500094F82C2094F82D5051B2002995FBF1F193
:108E600006DD01290BDC013A84F82C20002307E001
:108E7000013104DB013284F82C20022300E00123BD
:108E800094F82D20013A84F82D20C41805F0C0F97B
:108E9000204605F09DF9BDE8384005F0B9B938BD68
:108EA000581A002013B5084C002100910A460B46C1
:108EB0002046FFF7B5FC0549054A204602B0BDE84B
:108EC00010400AF0D1BD00BF881A0020ED620008F2
:108ED000940E002013B5084C002100910A460B4661
:108EE0002046FFF79DFC0549054A204602B0BDE833
:108EF00010400AF0B9BD00BF941A0020ED620008CE
:108F0000940E0020014B0360704700BFF07B010806
:108F10000369186C5B6CC01A00F03F00704703696E
:108F2000196C5A6C914202D05A6C985C70474FF0A1
:108F3000FF3070470369196C5A6C914207D05A6C24
:108F4000985C5A6C013202F03F025A6470474FF04D
:108F5000FF30704710B5034B04460360FEF742FC38
:108F6000204610BDF07B0108436910B50446196C1A
:108F70005A6C9142FBD1237E13B90023237610BD96
:108F80000348402105F091FB0028F6D1F3E700BF2C
:108F90000044004070B504460E462C4840F227714C
:108FA00005F089FB20B963691A6C5B6C9A4211D198
:108FB00063691D6C013505F03F0563695A6C954284
:108FC0000FD0EFF31082D20732D5196C5A6C914250
:108FD00007D12DE01D4840F22771012205F045FB25
:108FE000E6E71A4840F2277105F065FB0028E4D057
:108FF0001648802105F059FB0028DED0134840F2C6
:109000002771002205F031FB636910485A6C511C2E
:109010005964995C05F041FB63690C485A6C40F255
:10902000277102F03F025A64012205F01EFBC4E7DB
:109030001A6C06489E54636940F227711D6401252D
:1090400025762A4605F011FB284670BD00440040F5
:1090500010B51E4840F2255105F02DFB78B11B4894
:1090600005F01FFB1A4BC0B25A6D996D013202F028
:109070003F028A4203D0596D5A6519440875134856
:1090800040F2277105F017FBF8B1114CD4F89C2081
:10909000D4F8A0309A4207D1BDE810400B4840F206
:1090A0002771002205F0E1BAD4F8A03007485A1C15
:1090B000234493F85C10C4F8A02005F0EEFAD4F82D
:1090C000A03003F03F03C4F8A03010BD00440040BE
:1090D0009C1A0020014B187C704700BF9C1A00208E
:1090E000F7B5164C002504F1A406154F2B4629466A
:1090F0002A4600953046FFF793FB3A463046114921
:109100000AF0B2FC4FF47A73C4F8B4300E4B0F4936
:10911000C4F8AC3004F11403C4F8BC3004F1AC0062
:1091200004F15C033A46C4F8B050C4F8C03084F887
:10913000C45003B0BDE8F0400AF096BC9C1A002071
:10914000940E0020ED620008087C0108058F0008DD
:1091500070474FF0FF307047014B0360704700BF0E
:10916000F07B010810B5034B04460360FEF73AFBA1
:10917000204610BDF07B0108FDF7E6BC08B5FDF701
:10918000CFFC08BD08B50846FDF7FEFC012008BD70
:10919000002242604FF47A728260014A0260704796
:1091A000307C01080846FDF7A3BC000037B50D4C24
:1091B00000210D4D0B4600910A462046FFF730FB7B
:1091C0002A460A49204608340AF04EFC2046FFF79A
:1091D000DFFF074920462A4603B0BDE830400AF0C9
:1091E00043BC00BF641B0020940E0020ED62000809
:1091F000599100087047000037B50B4C00210B4D0A
:109200000B4600910A462046FFF70AFB2A462046F5
:1092100007490AF029FC074904F108002A4603B06F
:10922000BDE830400AF020BC7C1B0020940E0020DA
:10923000ED620008F59100080023036018467047AE
:1092400000230360184670470023036018467047E8
:109250002DE9F0410B7886B0002B0C4614BF9046E8
:109260004FF0000806460BF029FC074620460BF09D
:1092700025FC182301931E23012502930223039347
:10928000059000950494404631463A46002302F08A
:1092900047FD034B18705D7006B0BDE8F08100BF5C
:1092A000881B0020034610B548F21004A34208466C
:1092B0004CD00DDC48F20102934224D048F2020265
:1092C00093422AD0992B64D1324B01229A7410BD5B
:1092D00048F28004A3420FD0B3F5084F49D048F2BA
:1092E0004000834255D12B4C04F11400FCF78AFB5B
:1092F000A36A0133A36210BD264B01229A70DA7073
:1093000000221A7110BD234C01236371FFF7CEF8C0
:1093100000F5EA403030A06010BD1E4C637963B1A7
:10932000FFF7C4F800F5EA403030A0604FF47F400A
:1093300003F05AFAE72003F0D3FA00236371237392
:109340006373A373E3732374637410BD0A7D114BBD
:1093500062B99A604FF47F4001221A731A7403F0C5
:1093600043FABDE81040E72003F0BABA00221A73AE
:1093700010BD002100F0DDFF0121044601F020F8BE
:10938000054B1B689C4204D1024B0022DA739A738E
:109390005A7310BD881B0020080000201FB54FF431
:1093A00061504FF461610A2200238DE80F00064BE3
:1093B00044F620621A60684601A902AA03AB01F0D4
:1093C000BDFC05B05DF804FB381C00201FB5002370
:1093D000009301930293039301A8694602AA03AB89
:1093E00001F072FC05B05DF804FB000070B50021CF
:1093F0000A4C0E2001F074FD102510210E2001F002
:109400006FFD2A46204600210BF022F8294623460C
:109410000E200022BDE8704001F016BDB41B0020F4
:1094200030B5524D00249FB0FF20AC70EC706C70D2
:109430006C712C73AC746C73AC73EC732C7403F0A0
:10944000D3F9E72003F04CFA21462246204602F0E9
:1094500043FC2B46012103F82D4F0E200A4601F054
:10946000F3FC6B79012B05D1642003F067F801F060
:10947000C7F8F6E710210C2001F032FD3C4802F05D
:10948000F5F83C4802F09EFD012002F07FFD6846A1
:10949000394900F0D1FDAB786A78344C1A4317D1C2
:1094A00094F83C30002B57D0FF2002F021FD00281B
:1094B00052D11A24013C06D0E72003F03FFA3220B3
:1094C00003F03CF8F6E7FFF791FF85F83C40E2E750
:1094D000E72003F005FA04F12C030E2001210022FD
:1094E00001F084FCA37813B102F08CFD20702B787E
:1094F0000121013385F82C300022204B0E2001F091
:10950000A3FC002001240146012202F0E5FB2146D4
:1095100022461B4B0E2085F82D4001F095FC02F0F1
:109520005FFB642003F00AF8002002F023FB85F8BB
:109530003D404FF47F4000242C7403F055F9E720A0
:1095400003F0CEF948F2042002F0EEFCFFF726FF0C
:1095500085F83E401FB030BDE72003F0EFF9FA2058
:1095600002F0ECFF684600F0C3FD94E7881B002082
:10957000507C01086401002051920008B41B0020B7
:10958000B51B0020024B1A6818601046704700BFD8
:10959000381C00207FB5364C0025206403F084FC85
:1095A00003F0C4FB334B344A0093344B34490193EA
:1095B000344B35480293354B0393354B02F0C2FAD6
:1095C000642002F0BBFF002002F0D4FA012348F22D
:1095D000042084F83D30257402F0A6FC2D4B1A8837
:1095E0001E46012A31D00E2010212A4604F12C03F8
:1095F00001F0FCFB102828D123791D4DABB995F85B
:109600002C301BB9012385F83E300EE095F82D0073
:1096100058B90146012202F05FFB01212B4603F8F5
:109620002D1F0E200A4601F00FFC2379BBB9104B09
:1096300093F83E309BB1184801F038FCFFF7C6FEA6
:1096400004B0BDE87040FFF7A9BEFF2002F050FC57
:10965000FFF7CCFE0023338003F078FDCCE74FF416
:109660007F4003F0C1F8E72003F03AF9E3E700BFD9
:10967000881B0020E5CD000841920008F9CD0008C4
:109680003992000865CE0008A59200088DCE00082A
:1096900049920008B2020020CC1B00202DE9F341C2
:1096A000AE4C04F0B7FC0023A36494F84C304BB9E3
:1096B00094F84D3033B9A3687BB3FEF7F7FEA36887
:1096C00098422AD394F83D30A44D002B40D0002678
:1096D0006E71AE602E732E6585F84C60012785F89B
:1096E0003D606E73AE73EE736E7402F079FA6FF0D4
:1096F0007F402F7403F078F8E72003F0F1F864203E
:1097000002F01CFF95F83E3013B3304602F032FAF7
:1097100085F83D70FFF784FE1AE094F83D308F4DD8
:10972000B3B92B792BB9FEF7C1FE00F5EA40303012
:10973000A860002002F01EFA012384F83D304FF4A7
:109740007F400023237403F04FF8E72003F0C8F8AC
:1097500094F83E30814E13B1FFF762FE05E0337995
:109760001BB1337B03F0FF05FBB1E2787B4B012A91
:1097700013D11A7B012A10D15B79012B0DD103255E
:1097800077480BF09BF9013D82B27549012002F048
:109790009FF915F0FF05F3D1E570237B6F4DE3B121
:1097A00095F84D30002B74D017E029462A462846FC
:1097B000B56002F091FA6B480BF080F96A4F804671
:1097C00038460BF07BF900970190791F0320424641
:1097D0002B4602F01BFA3571C7E794F8573023B1D6
:1097E000624800213A220AF033FE94F88E205B4B47
:1097F00032B95A7B002A58D19B7B002B55D1BBE054
:109800001A7BFAB193F84D20E2B95A7B002A5CD05A
:1098100018E02B4603F82F2F0E200121032201F020
:1098200013FB00264FF6FF70267402F0DDFFE720E1
:1098300003F056F8FEF7AEFAB042484D65DB01235F
:109840002E656B73637B454D002B00F09580AB7BE1
:10985000BBB9FEF721FA002811D002DA4FF47F00DD
:1098600007E0012801D1424803E0022803D14FF06C
:10987000FF1002F0B9FFE72003F032F801E0012306
:10988000AB73FEF7CDF9002876D1E073A073607357
:1098900072E095F85730002BA7D1642002F04EFEFD
:1098A00005F1540001F090FA9FE7FEF763FA0023F8
:1098B0004FF47F40E373A373637302F095FFE720D7
:1098C00002B0BDE8F04103F00BB85B7C002BA8D0E0
:1098D0004FF47F0002F088FF637C204D03F0FF020D
:1098E000002B96D0E72002F0FBFF4FF4FA7002F055
:1098F00025FEE72003F002F84FF4FA7002F01EFE96
:109900006B7C013BDBB26B74E6E795F84C309BBB9C
:109910002B6D0133022B2B6504BF012385F84C30DE
:10992000FEF7F6F900280ADA236D0133022B2365CE
:1099300003D10A4B012283F84C20022300E00323C9
:109940006374637C0E2084F82F300121094B0322BD
:1099500001F07AFA0023637374E700BF881B0020CC
:10996000670100206E01002073010020DC1B002035
:109970000060FF00B71B002002B0BDE8F08100BF0F
:1099800013B5084C002100910A460B462046FEF70D
:1099900047FF0549054A204602B0BDE810400AF0DD
:1099A00063B800BF181C0020ED620008940E002070
:1099B000704708B5012003F041FFFEE708B503201A
:1099C00003F03CFFFEE708B5042003F037FFFEE795
:1099D00008B5052003F032FFFEE770477047704777
:1099E00008B503F0F5FCBDE80840FCF7B5BF000082
:1099F00008B5024B0BB1AFF3008008BD00000000BA
:109A000008B5024B0BB1FFF723FB08BD51900008CE
:109A100008B5024B0BB1FEF71FFE08BD59860008C2
:109A200008B5024B0BB1FEF718FE08BD5B860008B7
:109A300008B5024B0BB1FFF7AFF808BD998B0008D2
:109A400008B5012004F0A2F938B1012004F0ACF906
:109A5000024B13B10020FEF7A3FE08BDA18700084A
:109A600008B5022004F092F938B1022004F09CF904
:109A7000024B13B10120FEF793FE08BDA187000839
:109A800008B5042004F082F978B1042004F08CF9C0
:109A90000020064B0146188002F0D8FFBDE80840C0
:109AA00003481021012204F098BD08BD581C002075
:109AB000002C014008B5082004F068F938B10820EE
:109AC00004F072F9024B13B10320FEF769FE08BDE2
:109AD000A187000808B5102004F058F938B110200B
:109AE00004F062F9024B13B10420FEF759FE08BDE1
:109AF000A187000808B5202004F048F938B12020DB
:109B000004F052F90E4B13B10520FEF749FE402038
:109B100004F03CF938B1402004F046F9084B13B189
:109B20000620FEF73DFE802004F030F938B1802099
:109B300004F03AF9024B13B10720FEF731FE08BDDD
:109B4000A187000808B54FF4005004F01FF940B198
:109B50004FF4005004F028F9174B13B10D20FEF715
:109B60001FFE4FF4804004F011F940B14FF48040E3
:109B700004F01AF9104B13B10E20FEF711FE4FF44A
:109B8000004004F003F940B14FF4004004F00CF938
:109B9000094B13B10F20FEF703FE4FF4006004F0F1
:109BA000F5F838B14FF4006004F0FEF8BDE8084065
:109BB00002F04EBC08BD00BFA187000808B51048E0
:109BC000102104F043FDC8B10D48102104F049FDF7
:109BD000002002F0FFFF30B90A4B1A8892B20A3215
:109BE00092B21A8008BD06481021002204F0F5FC4C
:109BF000BDE808400020012102F028BF08BD00BFD9
:109C0000002C0140581C002008B5012004F016FB70
:109C100050B1012004F022FB044B0BB1FFF70EF909
:109C2000BDE8084004F0F4BA08BD00BF3D8E00084E
:109C300008B5022004F002FBB0B10C4B00224FF437
:109C400000301A7004F0B0F8012004F00DFA10B1E1
:109C5000012004F013FA04F0DBFA022004F0FEFA0B
:109C6000BDE8084004F0D4BA08BD00BFD51B0020F1
:109C700002F080BB00F062B838B514490B78012BB4
:109C800023D1134A13680BB90B7038BD114C402B0C
:109C9000206881B205D94030403B206013604025E8
:109CA00004E09DB203442360002313600A482A465F
:109CB0000844C02105F00AFA0120294605F00EFBF0
:109CC000BDE83840012005F073BA38BDB80C00205B
:109CD000C00C0020BC0C0020B80B002008B5094BBC
:109CE00001221A70084B002203201A8005F026FB7F
:109CF000064B024618804FF488710548BDE80840BD
:109D000005F0FCB96C0B0020700B00206E0B0020DE
:109D1000720B0020074B1B68052B09D1064B1A68F4
:109D2000511C052A196003D100221A60FCF74ABFB2
:109D3000704700BF841C0020241C002070B52B4DF0
:109D40002B4C2B682B4E9BB22380228833881340E8
:109D5000990508D54FF6FF532B60A3780133DBB28A
:109D6000A370FFF7D7FF2288338813401A0401D568
:109D700005F0F6F82288338813405B0505D54FF6C9
:109D8000FF332B601C4B5B689847228833881A404E
:109D9000900444BF4DF6FF722A6022881340D90414
:109DA00005D54EF6FF732B60002003F005FD2288D9
:109DB000338813401A050BD5104B1B7813B103F0F1
:109DC000DBFC02E0022003F0F7FC4FF2FF732B6094
:109DD000228833881340DB0507D54FF6FF632B60DD
:109DE0000720BDE8704003F0E7BC70BD445C004054
:109DF000281C002070260020D8010020D802002056
:109E0000034B9B7A13B1034B05221A60704700BFC6
:109E10004C260020841C0020014B04221A6070474D
:109E2000841C0020034B1A78202A04BF00221A70D9
:109E3000704700BF2C1C002070470000212810B57F
:109E400008D1114B1B681B7803F07F03212B10D026
:109E5000022010BD2028FBD10B4B0C4A1B681B783D
:109E6000107003F07F03212B094B18BF00230BB99F
:109E7000EEE7084B044A002412682046936154829E
:109E80009847204610BD00BF6C2600202C1C0020E7
:109E9000E59E0008CD9E0008074B1B681B7803F069
:109EA0007F03212B06D100F0DF00022814BF02201F
:109EB00000207047022070476C26002009B1022064
:109EC00070470128FBD808467047000020B9034BB3
:109ED00008221B681A827047014870476C260020D0
:109EE000D001002020B9034B08221B681A8270475A
:109EF000014870476C260020D001002010B5FCF707
:109F0000ADFE054B00241B689C7203F01DFC05F0A0
:109F10002BFA024B1C6010BD6C260020841C002014
:109F2000334B344A1B68D27910B500245A729C72A4
:109F3000DC72204605F0F4F820464FF4007105F07D
:109F4000F7F82046102105F001F92046402105F0E0
:109F500099F98021204605F085F9204605F04EF953
:109F6000254B204693F8341005F0C6F9204605F03D
:109F700032F90120214605F0DBF80120C02105F06F
:109F800071F90120202105F0E1F80120214605F0BA
:109F9000F6F802204FF4C06105F0CAF802204FF431
:109FA000807105F05FF90220214605F0E8F80220F3
:109FB000202105F0CBF80320214605F0B9F8032055
:109FC0004FF4887105F05EF90320402105F094F903
:109FD00003204FF4405105F0D2F80320214605F04C
:109FE000B5F8204604F050FF044B01221A6010BD62
:109FF0006C260020BD7C0108D0010020841C0020BC
:10A00000014904F03DBD00BF08020020014904F0F1
:10A0100037BD00BF10020020054B1B68DB78042B06
:10A0200004D8044901EBC30104F02ABD00207047A5
:10A030006C2600201802002038B504460D46FFF7B4
:10A04000A7F8204625614FF41651FFF7ABF82046DC
:10A0500038BD70B506460D46002428460AF02EFD90
:10A06000844208D2295D3046FFF78CF8012002F0C7
:10A0700065FA0134F1E770BD2DE9F04104460E4662
:10A08000904600252046FFF779F80028FADD2046A3
:10A09000FFF772F84545C1B206D100233370204660
:10A0A0001249FFF7D6FF15E00D29F6D00A29F4D0A2
:10A0B000082901D07F2904D1002DE3D0771E013D6E
:10A0C00002E0771C317001352046EDB2FFF75AF8F7
:10A0D0003E46D7E72046FFF751F8002803DD20462B
:10A0E000FFF74AF8F6E7BDE8F08100BFD5A8010800
:10A0F000F0B585B00446FFF741F8002840F39D8095
:10A100002046FFF739F8C0B2772868D104F1140669
:10A1100000212122304604F135050AF099F9412247
:10A12000002128460AF094F904F17607002384F808
:10A130007630204642497B70FFF78BFF2046314640
:10A140002022FFF799FF20463E49FFF782FF0122B8
:10A1500020463946FFF790FF94F87630A3F130029D
:10A16000D2B2032AEFD8312B0BD120463649FFF764
:10A1700070FF20463549FFF76CFF20463449FFF752
:10A1800068FF94F87620B2F1300708D020463149B4
:10A19000FFF75FFF204629464022FFF76DFF20466C
:10A1A0002D49FFF756FF23693A463046294698471E
:10A1B00020462A49FFF74DFF20462949FFF749FF6E
:10A1C00020462849FFF745FF20462749FFF741FF72
:10A1D00020462649FFF73DFF2046254928E069280B
:10A1E0002BD1244B01AD93E8070085E807002046FA
:10A1F0002149FFF72EFF0026AF5D20463B0903F102
:10A200003001392984BF03F15701C9B207F00F07A4
:10A21000FEF7B8FF07F13001392984BF5737F9B28B
:10A2200020460136FEF7AEFF0C2EE5D1134920463D
:10A2300005B0BDE8F040FFF70CBF05B0F0BD00BFB2
:10A2400029A7010830A701085DA7010893A7010805
:10A25000BEA7010804A801080FA8010852A8010818
:10A2600072A80108A5A80108D8A8010817A9010823
:10A2700048A90108E8F7FF1F5EA90108D5A8010851
:10A2800013B5084C002100910A460B462046FEF704
:10A29000C7FA0549054A204602B0BDE8104009F05A
:10A2A000E3BB00BF301C0020ED620008940E0020CC
:10A2B000002100F004B80E4B5B58435004310D48A8
:10A2C0000D4B42189A42FFF4F6AF0C4A00F003B867
:10A2D000002342F8043B0A4B9A42FFF4F9AF03F023
:10A2E000B9F9FCF775FAFDF761FAFCF7BFFA7047A8
:10A2F00078AC010800000020580B0020580B00200B
:10A300007C260020FFF7FEBF0B0A017043700B0C88
:10A31000090E8370C170043070470170090A4170E2
:10A320000230704743185A78435C03EB022080B236
:10A33000704710B543189A78DC78415C120402EB40
:10A34000046258780A4402EB002010BD73B54479CA
:10A350000023022C01930FD0032C19D0012C2BD1F8
:10A36000164D2B692E4623B12B6901A8984702464A
:10A37000B8B9B16801201BE0104DEB682E4623B13F
:10A38000EB6801A89847024658B9B16802200FE06F
:10A390000A4D6B692E464BB16B6901A8984702467E
:10A3A00020B1A9682046BDF8043003E0B16803205D
:10A3B0000022134600F024FC02B070BDB41D002042
:10A3C000072830B512D8012910D8EFF3108472B6DF
:10A3D0000125854001FA00F0054B1A6822EA0502C2
:10A3E00002431A602346DB0700D462B630BD00BFCB
:10A3F0006002002070B5012186B00546FFF792FF8C
:10A40000430404462AD5B0F5824F27D128460521BA
:10A41000FFF788FF05EB8000EE1D0024C51DAE424E
:10A4200006D030460221FFF77DFF04360444F6E7EC
:10A43000724B1A8E92B2224492B21A86DA6B14448C
:10A44000DC63D96B9A6B914240F0CA8093F840204C
:10A45000002A00F0C5809B69992031E024F4FF4078
:10A4600020F07F0080B2002800F0978048F21003AF
:10A470009C4228D00CD8B4F5004F40F2BC8048F282
:10A4800002039C4215D948F204039C4211D0B2E069
:10A4900048F280039C420CD004D848F240039C420E
:10A4A0004FD0A8E0B4F5024F03D0B4F5084F6BD0FD
:10A4B000A1E0524B9A69002A00F092809B692046E5
:10A4C00000210A4667E00023EA1852790DF80320BC
:10A4D0000133042BF8D16B7A05F10D008DF80430AF
:10A4E000AB7A8DF80530EB7A8DF806302B7B8DF842
:10A4F0000730002300AA1A44C15C0133042B1172F7
:10A50000F8D105F11100002300AA1A44C15C0133FF
:10A51000042B1173F8D105F11500002300AA1A4489
:10A52000C15C0133042B1174F8D12B798DF81430F0
:10A53000324B9A69002A53D09B69204669461522FE
:10A5400029E0053500212846FFF7F3FE042100909D
:10A550002846FFF7EEFE082101902846FFF7E9FEA6
:10A560000C2102902846FFF7E4FE102103902846B4
:10A57000FFF7DFFE214B04909A69002A30D09B69D7
:10A5800020466946142206E01C4B9A6942B39B6937
:10A590002046691D0122984722E041F203039C42B4
:10A5A00005D0A4F580530E3B9BB2012B1AD86C1D2D
:10A5B00020460421FFF7BDFE39301CD12A790F4B0C
:10A5C00000212046DA62FFF7B4FE0421054620464A
:10A5D000FFF7AFFE393003D128460121FFF7F0FE27
:10A5E000012009E0054B1B889BB29C4204D0B4F5C6
:10A5F000805FF5D100E0002006B070BDB41D0020E2
:10A6000070B50E4C6688B6B2B6B1606805782B1F7F
:10A610005D425D412DB1FFF7EDFE003018BF012016
:10A6200000E02846064618B935B194F841301BB908
:10A630000023638001F0B4FD304670BDB41D0020DE
:10A640002DE9F04F85B004468A46914602F0C8FED7
:10A6500000250190DFF83083B8F8023046469BB2FF
:10A66000002B40F0938003F0D5FC02F0B9FE02907D
:10A67000029A019BD31A0393039B002B03DA019BDD
:10A68000029A13440393BF4B1B68002BE2D0039A3A
:10A690009A42DFD3338841F207029BB2934227D814
:10A6A00041F20602934261D240F2022293425DD00F
:10A6B0000FD80C2B08D8082B58D2002B4FD0062BC4
:10A6C00088BF00235AD851E00D2B4CD040F2012214
:10A6D0000BE041F2020293424BD8B3F5805F45D8BC
:10A6E000B3F5017F3FD940F20722934237D13AE0D8
:10A6F00041F21102934236D014D841F20B02934238
:10A7000034D005D841F2090293422FD031D82AE043
:10A7100041F20F0293422CD028D841F20D0293420D
:10A7200027D01CE042F2060293421CD007D8B3F5B2
:10A73000005F14D942F20402934221D813E0B3F52A
:10A74000804F00F0EE8105D8A3F50053083B012BA4
:10A7500009D904E044F20B02934200F0E2810B209D
:10A7600003F06CF8DDE1FF232370DAE14FF0FF33F3
:10A7700004E04FF0FF3323606360D2E12360D0E157
:10A78000204600213A2209F063FECAE1D8F80460AD
:10A790003378042B40F0798130460121FFF7C2FD68
:10A7A00005463046FFF726FE002840F0638141F25F
:10A7B00007039D4206F1050755D841F206039D4265
:10A7C00080F0AE8040F202239D4200F0A98014D8B0
:10A7D0000C2D09D8082D80F0A380002D00F04A81AF
:10A7E000062D00F2E5809BE00D2D00F0968040F2F2
:10A7F00001239D4200F091803CE141F202039D4221
:10A8000018D8B5F5805F00F28B80B5F5017F40F276
:10A81000848040F207239D4240F02C8133793846F2
:10A8200004F8013B0021FFF784FD01462046FFF7B5
:10A830006BFD1FE141F204039D4200F08B8040F26A
:10A84000A58000213846FFF774FD042120603846BA
:10A85000FFF76FFD083444F8040C06F10D0322469F
:10A8600006F11D016FE041F211039D4255D02BD836
:10A8700041F20B039D4253D01CD841F209039D4283
:10A880004ED000F2908000213846FFF752FD04219F
:10A8900020603846FFF74DFD082160603846FFF71D
:10A8A00048FD0C21A0603846FFF743FD04F10C0B76
:10A8B000E060DEE041F20F039D4267D036D841F2FE
:10A8C0000D039D4246D0D5E042F206039D4224D0BE
:10A8D0000BD8B5F5005F40F2CD8042F204039D42F3
:10A8E00088BF002300F2888017E042F208039D42EF
:10A8F000C0F0C08042F209039D420ED944F20B031E
:10A900009D4240F0B780737938460121A8F8303075
:10A91000FFF708FDA8F83200ACE033792370A9E016
:10A9200038460021FFF705FD2060A3E000213846EE
:10A93000FFF7FFFCA3464BF8040B04213846FFF752
:10A94000F8FC606095E053F8040B8B4242F8040B6E
:10A95000F9D18FE000213846FFF7EBFC042120609D
:10A960003846FFF7E6FC082160603846FFF7E1FC57
:10A97000E36804F1080B3933A0607AD10121FFF7B5
:10A980001FFD76E0381C0020B41D00200021384651
:10A99000FFF7CFFC042120603846FFF7CAFC0834DB
:10A9A00044F8040C66E0337923713B68236061E06E
:10A9B00000213846FFF7BDFC042120603846FFF730
:10A9C000B8FC082160603846FFF7ACFC0A21A060A3
:10A9D0003846FFF7A7FC0C3444F8020C06F11103CB
:10A9E000224606F1350153F8040B8B4242F8040B62
:10A9F000F9D11B8813803DE0F2185279E2540133FB
:10AA0000042BF9D106F109000023C15CE2180133DF
:10AA1000042B1171F9D106F10D000023C15CE2187D
:10AA20000133042B1172F9D106F111000023C15C2E
:10AA3000E2180133042B1173F9D106F1150000233C
:10AA4000C15CE2180133042B1174F9D106F119002D
:10AA50000023C15CE2180133062B1175F9D106F110
:10AA60001F000023C15CE2180133202B9176F9D13D
:10AA700000E05C46B8F800202C4B92B2954236D1EB
:10AA800000221A8083F8412031E0B8F836309BB2BA
:10AA90006BB33046032196F802B0FFF743FC07463C
:10AAA000BAF1000F0BD00421701DFFF742FC06F134
:10AAB00015010246C9F800005046FAF7A3FFCBEB98
:10AAC00007077B1EB3F5806F07D20BF10501204607
:10AAD00031443A46FAF796FF01E04FF0FF37B9F1FB
